{
  "address": "0xBcAC6246971a29D5FEE663273EC1d803f576D9ec",
  "abi": [
    {
      "inputs": [],
      "stateMutability": "nonpayable",
      "type": "constructor"
    },
    {
      "anonymous": false,
      "inputs": [
        {
          "indexed": false,
          "internalType": "string",
          "name": "isbn",
          "type": "string"
        },
        {
          "indexed": false,
          "internalType": "string",
          "name": "title",
          "type": "string"
        },
        {
          "indexed": false,
          "internalType": "uint256",
          "name": "year",
          "type": "uint256"
        },
        {
          "indexed": false,
          "internalType": "string",
          "name": "author",
          "type": "string"
        }
      ],
      "name": "addBook",
      "type": "event"
    },
    {
      "anonymous": false,
      "inputs": [
        {
          "indexed": false,
          "internalType": "string",
          "name": "isbn",
          "type": "string"
        }
      ],
      "name": "deleteBook",
      "type": "event"
    },
    {
      "anonymous": false,
      "inputs": [
        {
          "indexed": false,
          "internalType": "string",
          "name": "isbn",
          "type": "string"
        },
        {
          "indexed": false,
          "internalType": "string",
          "name": "newTitle",
          "type": "string"
        },
        {
          "indexed": false,
          "internalType": "uint256",
          "name": "newYear",
          "type": "uint256"
        },
        {
          "indexed": false,
          "internalType": "string",
          "name": "newAuthor",
          "type": "string"
        }
      ],
      "name": "updateBook",
      "type": "event"
    },
    {
      "inputs": [
        {
          "internalType": "string",
          "name": "",
          "type": "string"
        }
      ],
      "name": "Book",
      "outputs": [
        {
          "internalType": "string",
          "name": "isbn",
          "type": "string"
        },
        {
          "internalType": "string",
          "name": "title",
          "type": "string"
        },
        {
          "internalType": "uint256",
          "name": "year",
          "type": "uint256"
        },
        {
          "internalType": "string",
          "name": "author",
          "type": "string"
        }
      ],
      "stateMutability": "view",
      "type": "function"
    },
    {
      "inputs": [
        {
          "internalType": "string",
          "name": "_isbn",
          "type": "string"
        },
        {
          "internalType": "string",
          "name": "_title",
          "type": "string"
        },
        {
          "internalType": "uint256",
          "name": "_year",
          "type": "uint256"
        },
        {
          "internalType": "string",
          "name": "_author",
          "type": "string"
        }
      ],
      "name": "addBooks",
      "outputs": [],
      "stateMutability": "nonpayable",
      "type": "function"
    },
    {
      "inputs": [],
      "name": "admin",
      "outputs": [
        {
          "internalType": "address",
          "name": "",
          "type": "address"
        }
      ],
      "stateMutability": "view",
      "type": "function"
    },
    {
      "inputs": [
        {
          "internalType": "string",
          "name": "_isbn",
          "type": "string"
        }
      ],
      "name": "deleteBooks",
      "outputs": [],
      "stateMutability": "nonpayable",
      "type": "function"
    },
    {
      "inputs": [
        {
          "internalType": "string",
          "name": "_isbn",
          "type": "string"
        },
        {
          "internalType": "string",
          "name": "_newTitle",
          "type": "string"
        },
        {
          "internalType": "uint256",
          "name": "_newYear",
          "type": "uint256"
        },
        {
          "internalType": "string",
          "name": "_newAuthor",
          "type": "string"
        }
      ],
      "name": "editBooks",
      "outputs": [],
      "stateMutability": "nonpayable",
      "type": "function"
    },
    {
      "inputs": [
        {
          "internalType": "string",
          "name": "_isbn",
          "type": "string"
        }
      ],
      "name": "getBooksByISBN",
      "outputs": [
        {
          "internalType": "string",
          "name": "",
          "type": "string"
        },
        {
          "internalType": "string",
          "name": "",
          "type": "string"
        },
        {
          "internalType": "uint256",
          "name": "",
          "type": "uint256"
        },
        {
          "internalType": "string",
          "name": "",
          "type": "string"
        }
      ],
      "stateMutability": "view",
      "type": "function"
    }
  ],
  "transactionHash": "0xabb09b1244fc66147701a237e8b8d07f704be0d73a5c14d5fe01b451b6c7c611",
  "args": [],
  "numDeployments": 1,
  "solcInputHash": "d0db44e33853bda0fdcd4818400239e4",
  "bytecode": "0x608060405234801561001057600080fd5b50600080546001600160a01b03191633179055610d9e806100326000396000f3fe608060405234801561001057600080fd5b50600436106100625760003560e01c80630fd5f4231461006757806327459d321461007c578063419c90671461008f5780638748003c146100bb578063b1b62a10146100ce578063f851a440146100e1575b600080fd5b61007a610075366004610a08565b61010c565b005b61007a61008a366004610a9a565b610251565b6100a261009d366004610a9a565b610353565b6040516100b29493929190610b27565b60405180910390f35b61007a6100c9366004610a08565b61051e565b6100a26100dc366004610a9a565b610688565b6000546100f4906001600160a01b031681565b6040516001600160a01b0390911681526020016100b2565b6000546001600160a01b0316331461013f5760405162461bcd60e51b815260040161013690610b71565b60405180910390fd5b60018460405161014f9190610ba6565b908152604051908190036020019020805461016990610bc2565b905060000361018a5760405162461bcd60e51b815260040161013690610bfc565b8260018560405161019b9190610ba6565b908152602001604051809103902060010190816101b89190610c8e565b50816001856040516101ca9190610ba6565b908152602001604051809103902060020181905550806001856040516101f09190610ba6565b9081526020016040518091039020600301908161020d9190610c8e565b507f8cd35f49c627e6143c8a359d7a434af940b24b0e7b42aeae29ee8fbfb3342588848484846040516102439493929190610b27565b60405180910390a150505050565b6000546001600160a01b0316331461027b5760405162461bcd60e51b815260040161013690610b71565b60018160405161028b9190610ba6565b90815260405190819003602001902080546102a590610bc2565b90506000036102c65760405162461bcd60e51b815260040161013690610bfc565b6001816040516102d69190610ba6565b90815260405190819003602001902060006102f1828261090f565b6102ff60018301600061090f565b6002820160009055600382016000610317919061090f565b50507ff96375234c04d6c8dea5757fd7802a338e98d82f04ac54f1ae2d5fdb8c8e07c4816040516103489190610d4e565b60405180910390a150565b805160208183018101805160018252928201919093012091528054819061037990610bc2565b80601f01602080910402602001604051908101604052809291908181526020018280546103a590610bc2565b80156103f25780601f106103c7576101008083540402835291602001916103f2565b820191906000526020600020905b8154815290600101906020018083116103d557829003601f168201915b50505050509080600101805461040790610bc2565b80601f016020809104026020016040519081016040528092919081815260200182805461043390610bc2565b80156104805780601f1061045557610100808354040283529160200191610480565b820191906000526020600020905b81548152906001019060200180831161046357829003601f168201915b50505050509080600201549080600301805461049b90610bc2565b80601f01602080910402602001604051908101604052809291908181526020018280546104c790610bc2565b80156105145780601f106104e957610100808354040283529160200191610514565b820191906000526020600020905b8154815290600101906020018083116104f757829003601f168201915b5050505050905084565b6000546001600160a01b031633146105485760405162461bcd60e51b815260040161013690610b71565b6001846040516105589190610ba6565b908152604051908190036020019020805461057290610bc2565b1590506105cd5760405162461bcd60e51b815260206004820152602360248201527f42756b752064656e67616e204953424e2074657273656275742053756461682060448201526261646160e81b6064820152608401610136565b6040518060800160405280858152602001848152602001838152602001828152506001856040516105fe9190610ba6565b9081526040519081900360200190208151819061061b9082610c8e565b50602082015160018201906106309082610c8e565b50604082015160028201556060820151600382019061064f9082610c8e565b509050507f598e1455a0ad99463f615633c2fc73c6796adb2f6533499ae8a9f9b9ddf65c41848484846040516102439493929190610b27565b6060806000606060018560405161069f9190610ba6565b90815260405190819003602001902080546106b990610bc2565b90506000036106da5760405162461bcd60e51b815260040161013690610bfc565b6001856040516106ea9190610ba6565b90815260405190819003602001812090600190610708908890610ba6565b90815260200160405180910390206001016001876040516107299190610ba6565b90815260200160405180910390206002015460018860405161074b9190610ba6565b908152602001604051809103902060030183805461076890610bc2565b80601f016020809104026020016040519081016040528092919081815260200182805461079490610bc2565b80156107e15780601f106107b6576101008083540402835291602001916107e1565b820191906000526020600020905b8154815290600101906020018083116107c457829003601f168201915b505050505093508280546107f490610bc2565b80601f016020809104026020016040519081016040528092919081815260200182805461082090610bc2565b801561086d5780601f106108425761010080835404028352916020019161086d565b820191906000526020600020905b81548152906001019060200180831161085057829003601f168201915b5050505050925080805461088090610bc2565b80601f01602080910402602001604051908101604052809291908181526020018280546108ac90610bc2565b80156108f95780601f106108ce576101008083540402835291602001916108f9565b820191906000526020600020905b8154815290600101906020018083116108dc57829003601f168201915b5050505050905093509350935093509193509193565b50805461091b90610bc2565b6000825580601f1061092b575050565b601f016020900490600052602060002090810190610949919061094c565b50565b5b80821115610961576000815560010161094d565b5090565b634e487b7160e01b600052604160045260246000fd5b600082601f83011261098c57600080fd5b813567ffffffffffffffff808211156109a7576109a7610965565b604051601f8301601f19908116603f011681019082821181831017156109cf576109cf610965565b816040528381528660208588010111156109e857600080fd5b836020870160208301376000602085830101528094505050505092915050565b60008060008060808587031215610a1e57600080fd5b843567ffffffffffffffff80821115610a3657600080fd5b610a428883890161097b565b95506020870135915080821115610a5857600080fd5b610a648883890161097b565b9450604087013593506060870135915080821115610a8157600080fd5b50610a8e8782880161097b565b91505092959194509250565b600060208284031215610aac57600080fd5b813567ffffffffffffffff811115610ac357600080fd5b610acf8482850161097b565b949350505050565b60005b83811015610af2578181015183820152602001610ada565b50506000910152565b60008151808452610b13816020860160208601610ad7565b601f01601f19169290920160200192915050565b608081526000610b3a6080830187610afb565b8281036020840152610b4c8187610afb565b90508460408401528281036060840152610b668185610afb565b979650505050505050565b6020808252818101527f48616e79612061646d696e2079616e6720626f6c6568206d656c616b756b616e604082015260600190565b60008251610bb8818460208701610ad7565b9190910192915050565b600181811c90821680610bd657607f821691505b602082108103610bf657634e487b7160e01b600052602260045260246000fd5b50919050565b60208082526023908201527f42756b752064656e67616e204953424e20746572736562757420746964616b2060408201526261646160e81b606082015260800190565b601f821115610c8957600081815260208120601f850160051c81016020861015610c665750805b601f850160051c820191505b81811015610c8557828155600101610c72565b5050505b505050565b815167ffffffffffffffff811115610ca857610ca8610965565b610cbc81610cb68454610bc2565b84610c3f565b602080601f831160018114610cf15760008415610cd95750858301515b600019600386901b1c1916600185901b178555610c85565b600085815260208120601f198616915b82811015610d2057888601518255948401946001909101908401610d01565b5085821015610d3e5787850151600019600388901b60f8161c191681555b5050505050600190811b01905550565b602081526000610d616020830184610afb565b939250505056fea2646970667358221220ffb4e07c58aecff4424bf27947c984d32656a79ebd30e950e5dd35d2f5afbfda64736f6c63430008130033",
  "devdoc": {
    "kind": "dev",
    "methods": {},
    "version": 1
  },
  "userdoc": {
    "kind": "user",
    "methods": {},
    "version": 1
  },
  "storageLayout": {
    "storage": [
      {
        "astId": 3,
        "contract": "contracts/library.sol:LibraryBookSmartContract",
        "label": "admin",
        "offset": 0,
        "slot": "0",
        "type": "t_address"
      },
      {
        "astId": 17,
        "contract": "contracts/library.sol:LibraryBookSmartContract",
        "label": "Book",
        "offset": 0,
        "slot": "1",
        "type": "t_mapping(t_string_memory_ptr,t_struct(Books)12_storage)"
      }
    ],
    "types": {
      "t_address": {
        "encoding": "inplace",
        "label": "address",
        "numberOfBytes": "20"
      },
      "t_mapping(t_string_memory_ptr,t_struct(Books)12_storage)": {
        "encoding": "mapping",
        "key": "t_string_memory_ptr",
        "label": "mapping(string => struct LibraryBookSmartContract.Books)",
        "numberOfBytes": "32",
        "value": "t_struct(Books)12_storage"
      },
      "t_string_memory_ptr": {
        "encoding": "bytes",
        "label": "string",
        "numberOfBytes": "32"
      },
      "t_string_storage": {
        "encoding": "bytes",
        "label": "string",
        "numberOfBytes": "32"
      },
      "t_struct(Books)12_storage": {
        "encoding": "inplace",
        "label": "struct LibraryBookSmartContract.Books",
        "members": [
          {
            "astId": 5,
            "contract": "contracts/library.sol:LibraryBookSmartContract",
            "label": "isbn",
            "offset": 0,
            "slot": "0",
            "type": "t_string_storage"
          },
          {
            "astId": 7,
            "contract": "contracts/library.sol:LibraryBookSmartContract",
            "label": "title",
            "offset": 0,
            "slot": "1",
            "type": "t_string_storage"
          },
          {
            "astId": 9,
            "contract": "contracts/library.sol:LibraryBookSmartContract",
            "label": "year",
            "offset": 0,
            "slot": "2",
            "type": "t_uint256"
          },
          {
            "astId": 11,
            "contract": "contracts/library.sol:LibraryBookSmartContract",
            "label": "author",
            "offset": 0,
            "slot": "3",
            "type": "t_string_storage"
          }
        ],
        "numberOfBytes": "128"
      },
      "t_uint256": {
        "encoding": "inplace",
        "label": "uint256",
        "numberOfBytes": "32"
      }
    }
  }
}